:100000000C945D000C9485000C9485000C94850084
:100010000C9485000C9485000C9485000C9485004C
:100020000C9485000C9485000C9485000C9485003C
:100030000C9485000C9485000C9485000C9485002C
:100040000C94D2010C9474020C9442020C941C0285
:100050000C9485000C9485000C9485000C9485000C
:100060000C9485000C9485000000000025002800F9
:100070002B0000000008000201000003040700003C
:1000800000000000000000000000240027002A00FB
:10009000010204081020408001020408102001021F
:1000A00004081020040404040404040402020202EC
:1000B0000202030303030303DA0211241FBECFEF7E
:1000C000D8E0DEBFCDBF11E0A0E0B1E0E0E6F9E0AE
:1000D00002C005900D92A838B107D9F722E0A8E830
:1000E000B1E001C01D92A133B207E1F710E0CDE508
:1000F000D0E004C02197FE010E94A804CC35D107AE
:10010000C9F70E9446030C94AE040C940000AF9211
:10011000BF92CF92DF92EF92FF920F931F93CF93F4
:10012000DF936C017B018B01040F151FEB015E0156
:10013000AE18BF08C017D10759F06991D601ED91EB
:10014000FC910190F081E02DC6010995892B79F78A
:10015000C501DF91CF911F910F91FF90EF90DF903C
:10016000CF90BF90AF900895FC01538D448D252F03
:1001700030E0842F90E0821B930B541710F0CF9641
:10018000089501970895FC01918D828D981761F073
:10019000A28DAE0FBF2FB11D5D968C91928D9F5F8A
:1001A0009F73928F90E008958FEF9FEF0895FC0169
:1001B000918D828D981731F0828DE80FF11D858D1C
:1001C00090E008958FEF9FEF0895FC01918D228DAF
:1001D000892F90E0805C9F4F821B91098F73992734
:1001E000089582E991E00E94E50021E0892B09F45D
:1001F00020E0822F089580E090E0892B29F00E9472
:10020000F10081110C9400000895FC01A48DA80F49
:10021000B92FB11DA35ABF4F2C91848D90E0019648
:100220008F739927848FA689B7892C93A089B18968
:100230008C91837080648C93938D848D981306C009
:100240000288F389E02D80818F7D80830895EF926D
:10025000FF920F931F93CF93DF93EC0181E0888F80
:100260009B8D8C8D98131AC0E889F989808185FF50
:1002700015C09FB7F894EE89FF896083E889F989F2
:1002800080818370806480839FBF81E090E0DF91F4
:10029000CF911F910F91FF90EF900895F62E0B8D47
:1002A00010E00F5F1F4F0F731127E02E8C8D8E1102
:1002B0000CC00FB607FCFACFE889F989808185FF69
:1002C000F5CFCE010E940501F1CFEB8DEC0FFD2F94
:1002D000F11DE35AFF4FF0829FB7F8940B8FEA8924
:1002E000FB8980818062CFCFCF93DF93EC01888D33
:1002F0008823B9F0AA89BB89E889F9898C9185FDA1
:1003000003C0808186FD0DC00FB607FCF7CF8C912E
:1003100085FFF2CF808185FFEDCFCE010E940501E0
:10032000E9CFDF91CF910895CF93DF9390E0FC0167
:10033000E057FF4F24918C559F4FFC0184918823F7
:10034000D1F090E0880F991FFC01EA57FF4FA5916B
:10035000B491FC01E859FF4FC591D49161110EC0D1
:100360009FB7F8948C91E22FE0958E238C9328818F
:10037000E223E8839FBFDF91CF9108958FB7F89470
:10038000EC91E22BEC938FBFF6CFFC0101900020A3
:10039000E9F73197AF01481B590BBC0182E991E0A5
:1003A0000C9487001F920F920FB60F9211242F9377
:1003B0003F938F939F93AF93BF9380918E019091C2
:1003C0008F01A0919001B091910130918D0123E0B6
:1003D000230F2D3758F50196A11DB11D20938D01D6
:1003E00080938E0190938F01A0939001B09391011F
:1003F0008091890190918A01A0918B01B0918C012B
:100400000196A11DB11D8093890190938A01A0934B
:100410008B01B0938C01BF91AF919F918F913F91D0
:100420002F910F900FBE0F901F90189526E8230F65
:100430000296A11DB11DD2CF1F920F920FB60F923F
:1004400011242F933F934F935F936F937F938F93D9
:100450009F93AF93BF93EF93FF9382E991E00E9444
:100460000501FF91EF91BF91AF919F918F917F9186
:100470006F915F914F913F912F910F900FBE0F9011
:100480001F9018951F920F920FB60F9211242F9361
:100490008F939F93EF93FF93E091A201F091A301BB
:1004A0008081E091A801F091A90182FD1BC090819B
:1004B0008091AB018F5F8F732091AC01821741F067
:1004C000E091AB01F0E0EE56FE4F958F8093AB01CB
:1004D000FF91EF919F918F912F910F900FBE0F90F1
:1004E0001F9018958081F4CF1F920F920FB60F9234
:1004F0001124CF92DF92EF92FF920F931F932F93CD
:100500003F934F935F936F937F938F939F93AF939B
:10051000BF93EF93FF93CF93DF93CDB7DEB7A19750
:10052000DEBFCDBF8EE791E00E94C5012EB530E061
:1005300050E040E019A28E010F5D1F4F8AE0C82EE7
:10054000D12CE12CF12CCA01B901A70196010E941E
:100550008604605DF80162938F0121153105410524
:10056000510589F7309719F0CF010E94C50185E840
:1005700091E00E94C501A1960FB6F894DEBF0FBEB0
:10058000CDBFDF91CF91FF91EF91BF91AF919F913F
:100590008F917F916F915F914F913F912F911F911B
:1005A0000F91FF90EF90DF90CF900F900FBE0F90C4
:1005B0001F901895E2E9F1E01382128288EE93E031
:1005C000A0E0B0E084839583A683B78380E791E0C1
:1005D0009183808385EC90E09587848784EC90E01C
:1005E0009787868780EC90E0918B808B81EC90E000
:1005F000938B828B82EC90E0958B848B86EC90E0E1
:10060000978B868B118E128E138E148EEFE2F2E092
:1006100080E5808381E08183E0E0F1E01182128255
:100620001382148215821682178210861186138A0D
:10063000148A158A168A178A108E118E128E138EBE
:1006400015A216A217A210A611A612A613A614A6EA
:1006500015A686E887AB80AF81AF82AF83AF84AF4A
:1006600085AF86AF87AF8093490180934A0180931D
:100670004B0180934C0180934D0180934E018093F8
:100680004F0180935001809351010895CF93DF93E0
:10069000CDB7DEB763970FB6F894DEBF0FBECDBF00
:1006A000789484B5826084BD84B5816084BD85B54D
:1006B000826085BD85B5816085BD80916E00816059
:1006C00080936E00109281008091810082608093FF
:1006D0008100809181008160809381008091800001
:1006E0008160809380008091B10084608093B1002C
:1006F0008091B00081608093B00080917A00846026
:1007000080937A0080917A00826080937A00809151
:100710007A00816080937A0080917A00806880936B
:100720007A001092C10061E08DE00E94940161E0C6
:100730008DE00E94940160E08BE00E94940161E0F2
:100740008CE00E94940161E08AE00E9494018CB5E3
:1007500080688CBD1FB7F89480918801811149C0D1
:100760008EEA90E0FC0124914AE950E0FA013491CC
:10077000E22FF0E0EE0FFF1FEA57FF4FA591B49173
:100780002C91322321F5ECE7F0E02491FA01449119
:10079000FC0194919923D9F0222359F0233009F4D4
:1007A0008FC008F082C0213009F490C0223009F4D3
:1007B00091C0E92FF0E0EE0FFF1FE859FF4FA59120
:1007C000B4918FB7F8949C91492B4C938FBF61E003
:1007D0008AE00E9494018CB580618CBD8CB58064E8
:1007E0008CBD61E08DE00E94940161E08BE00E948D
:1007F0009401809188018F5F809388011FBFE091F1
:10080000A201F091A30182E08083E0919E01F0912A
:100810009F011082E091A001F091A10180E180830D
:100820001092AA01E091A601F091A70186E08083D1
:10083000E091A401F091A501808180618083E09125
:10084000A401F091A501808188608083E091A401DA
:10085000F091A501808180688083E091A401F091EE
:10086000A50180818F7D8083D12C00E011E07E0185
:10087000F3E1EF0EF11C80E0A82E80E0B82E9091FD
:100880002F02809130029CBD8DBD0983DB8A0EBD95
:10089000FE013196EE15FF0551F191810DB407FE71
:1008A000FDCF8EB59EBD8193F5CF2730B1F02830B6
:1008B000D1F0243009F07DCF809180008F7D03C07E
:1008C000809180008F778093800073CF84B58F777D
:1008D00084BD6FCF84B58F7DFBCF8091B0008F77C3
:1008E0008093B00066CF8091B0008F7DF9CF0DB4BA
:1008F00007FEFDCF8EB5A114B10409F20E94F100EC
:10090000882309F4BCCF0E940000B9CFA1E21A2EBF
:10091000AA1BBB1BFD010DC0AA1FBB1FEE1FFF1FA3
:10092000A217B307E407F50720F0A21BB30BE40BF3
:10093000F50B661F771F881F991F1A9469F760953A
:100940007095809590959B01AC01BD01CF010895F4
:10095000EE0FFF1F0590F491E02D0994F894FFCF5E
:100960000000000000000000000000000000000087
:100970000000100000000000000000000000000067
:100980000000000020000000000000000000000047
:100990000000000000003000000000000000000027
:1009A0000000000000000000400000000000000007
:1009B00000000000000000000000500000000000E7
:1009C0000000000000000000000000000000000027
:1009D00027018700B4007401E500C300D70044413B
:0809E00054413A20000D0A0009
:00000001FF
