:100000000C9453000C947B000C947B000C947B00AC
:100010000C947B000C947B000C947B000C947B0074
:100020000C947B000C947B000C947B000C947B0064
:100030000C947B000C947B000C947B000C947B0054
:100040000C9453020C949D020C9421020C94FB011D
:100050000C947B000C947B000C947B000C947B0034
:100060000C947B000C947B0000000000250028000D
:100070002B0000000000240027002A0004040404D0
:100080000404040402020202020203030303030342
:10009000010204081020408001020408102001021F
:1000A00004081020EF0211241FBECFEFD8E0DEBFFE
:1000B000CDBF11E0A0E0B1E0E4E5FEE002C00590B4
:1000C0000D92A232B107D9F722E0A2E2B1E001C05D
:1000D0001D92AD3CB207E1F710E0C3E5D0E004C0EB
:1000E0002197FE010E944A04C235D107C9F70E9438
:1000F00028030C9428070C940000AF92BF92CF9273
:10010000DF92EF92FF920F931F93CF93DF936C01D7
:100110007B018B01040F151FEB015E01AE18BF08B8
:10012000C017D10759F06991D601ED91FC9101906A
:10013000F081E02DC6010995892B79F7C501DF9182
:10014000CF911F910F91FF90EF90DF90CF90BF90D4
:10015000AF900895FC01538D448D252F30E0842FFE
:1001600090E0821B930B541710F0CF9608950197DF
:100170000895FC01918D828D981761F0A28DAE0FCC
:10018000BF2FB11D5D968C91928D9F5F9F73928F53
:1001900090E008958FEF9FEF0895FC01918D828D7F
:1001A000981731F0828DE80FF11D858D90E008954C
:1001B0008FEF9FEF0895FC01918D228D892F90E0A4
:1001C000805C9F4F821B91098F73992708958CE261
:1001D00091E00E94DB0021E0892B09F420E0822FCE
:1001E000089580E090E0892B29F00E94E7008111BA
:1001F0000C9400000895FC01A48DA80FB92FB11D27
:10020000A35ABF4F2C91848D90E001968F7399274C
:10021000848FA689B7892C93A089B1898C9183702A
:1002200080648C93938D848D981306C00288F38923
:10023000E02D80818F7D80830895EF92FF920F9350
:100240001F93CF93DF93EC0181E0888F9B8D8C8D82
:1002500098131AC0E889F989808185FF15C09FB776
:10026000F894EE89FF896083E889F9898081837039
:10027000806480839FBF81E090E0DF91CF911F91E8
:100280000F91FF90EF900895F62E0B8D10E00F5F09
:100290001F4F0F731127E02E8C8D8E110CC00FB6DF
:1002A00007FCFACFE889F989808185FFF5CFCE0177
:1002B0000E94FB00F1CFEB8DEC0FFD2FF11DE35AF7
:1002C000FF4FF0829FB7F8940B8FEA89FB898081FA
:1002D0008062CFCFCF93DF93EC01888D8823B9F074
:1002E000AA89BB89E889F9898C9185FD03C0808141
:1002F00086FD0DC00FB607FCF7CF8C9185FFF2CFBE
:10030000808185FFEDCFCE010E94FB00E9CFDF9118
:10031000CF910895CF93DF9390E0FC01E057FF4F1A
:10032000249184589F4FFC0184918823D1F090E060
:10033000880F991FFC01EE58FF4FA591B491FC0165
:10034000E859FF4FC591D49161110EC09FB7F89441
:100350008C91E22FE0958E238C932881E223E88311
:100360009FBFDF91CF9108958FB7F894EC91E22B66
:10037000EC938FBFF6CF3FB7F8948091270190910F
:100380002801A0912901B0912A0126B5A89B05C09A
:100390002F3F19F00196A11DB11D3FBFBA2FA92F04
:1003A000982F8827BC01CD01620F711D811D911D01
:1003B00042E0660F771F881F991F4A95D1F708956D
:1003C000FC0101900020E9F73197AF01481B590B60
:1003D000BC018CE291E00C947D00CF93DF930E94EE
:1003E000E001EC0182E191E00E94E0018C0F9D1F91
:1003F000DF91CF9108951F920F920FB60F921124A3
:100400002F933F934F935F936F937F938F939F931C
:10041000AF93BF93EF93FF938CE291E00E94FB00B8
:10042000FF91EF91BF91AF919F918F917F916F91CC
:100430005F914F913F912F910F900FBE0F901F90A2
:1004400018951F920F920FB60F9211242F938F932E
:100450009F93EF93FF93E0913C01F0913D018081E8
:10046000E0914201F091430182FD1BC09081809197
:1004700045018F5F8F7320914601821741F0E09113
:100480004501F0E0E45DFE4F958F80934501FF91BB
:10049000EF919F918F912F910F900FBE0F901F9012
:1004A00018958081F4CF1F920F920FB60F921124EE
:1004B0002F933F938F939F93AF93BF93809123018B
:1004C00090912401A0912501B09126013091220143
:1004D00023E0230F2D3758F50196A11DB11D209360
:1004E00022018093230190932401A0932501B093CE
:1004F00026018091270190912801A0912901B091B6
:100500002A010196A11DB11D809327019093280116
:10051000A0932901B0932A01BF91AF919F918F9130
:100520003F912F910F900FBE0F901F90189526E8C6
:10053000230F0296A11DB11DD2CF1F920F920FB6AD
:100540000F9211242F933F938F939F93EF93FF93D9
:100550008091CC028F3F69F12EB58091CA029091B3
:10056000CB02019632E0883C9307E1F09093CB02F6
:100570008093CA02E091CA02F091CB02208380915D
:10058000CC028F3F09F5E091C802F091C902CF017A
:10059000019622E0883C920741F09093C902809333
:1005A000C80207C089EC91E0E1CF89EC91E0928329
:1005B0008183FF91EF919F918F913F912F910F90A8
:1005C0000FBE0F901F90189591E0980F9093CC025A
:1005D0008111EFCF8091CA029091CB02DECFECE285
:1005E000F1E01382128288EE93E0A0E0B0E0848311
:1005F0009583A683B78384E091E09183808385EC23
:1006000090E09587848784EC90E09787868780ECDC
:1006100090E0918B808B81EC90E0938B828B82ECCD
:1006200090E0958B848B86EC90E0978B868B118E77
:10063000128E138E148E89EC91E09093C9028093F0
:10064000C8029093CB028093CA021092CC02089504
:10065000CF93DF9300D01F92CDB7DEB7789484B5E7
:10066000826084BD84B5816084BD85B5826085BDAE
:1006700085B5816085BD80916E00816080936E003C
:10068000109281008091810082608093810080912E
:1006900081008160809381008091800081608093DF
:1006A00080008091B10084608093B1008091B0009F
:1006B00081608093B00080917A00846080937A009A
:1006C00080917A00826080937A0080917A008160C4
:1006D00080937A0080917A00806880937A001092EB
:1006E000C10060E08DE00E948A0160E08BE00E9422
:1006F0008A0161E08CE00E948A0160E08AE00E9449
:100700008A018CB580648CBD8CB580688CBDE0910D
:100710003C01F0913D0182E08083E0913801F0914D
:1007200039011082E0913A01F0913B0188E0808329
:1007300010924401E0914001F091410186E08083F4
:10074000E0913E01F0913F01808180618083E091E2
:100750003E01F0913F01808188608083E0913E01FD
:10076000F0913F01808180688083E0913E01F091AB
:100770003F0180818F7D8083AA24AA94B12C05E15A
:1007800011E0CE0101967C0190E0C92E90E0D92EB7
:10079000882483940E94BB012B013C010E94BB0171
:1007A0006419750986099709683E734081059105AA
:1007B000A8F38091CC028F3FC9F580912B01811164
:1007C00035C0912C8091CC02981610F58091C8020A
:1007D0009091C902895C9140890D911DB5010E94DB
:1007E0002204FC01E753FE4F80811F928F931F93D9
:1007F0000F93FF92EF920E945004C7010E94E00104
:1008000093940F900F900F900F900F900F90DACF5E
:1008100080922B0184E191E00E94ED018BE191E057
:100820000E94ED0184E191E00E94ED01C114D10428
:1008300009F4B0CF0E94E700882309F4ABCF0E94EF
:100840000000A8CF97FB072E16F4009407D077FD81
:1008500009D00E94360407FC05D03EF4909581959E
:100860009F4F0895709561957F4F0895AA1BBB1BFC
:1008700051E107C0AA1FBB1FA617B70710F0A61BA0
:10088000B70B881F991F5A95A9F780959095BC01C1
:10089000CD010895EE0FFF1F0590F491E02D09940E
:1008A000AEE0B0E0E6E5F4E00C94FF060D891E89A9
:1008B00086E08C831A8309838FEF9FE79E838D8365
:1008C000AE01475E5F4F6F89788DCE0101960E9421
:1008D00073042F813885020F131FF80110822E96A2
:1008E000E4E00C941B07ABE0B0E0E9E7F4E00C9423
:1008F000F1067C013B018A01FC011782168283818B
:1009000081FFC8C1CE0101965C01F7019381F3011B
:1009100093FD859193FF81913F01882309F453C191
:10092000853239F493FD859193FF81913F018532A2
:1009300029F4B70190E00E946306E7CF912C212CA7
:10094000312CFFE1F31538F08B3211F190F4803245
:1009500009F1833229F137FC3CC020ED280F2A3001
:1009600050F536FE20C08AE0989E200D1124922E6C
:1009700006C08D3291F0803371F7689430F8F3013E
:1009800093FD859193FF81913F018111DACF21C0C1
:10099000689431F8689432F8F2CF689433F8EFCF66
:1009A000689434F8ECCFEAE02E9E200D1124222E1C
:1009B000689435F8E4CF8E3229F436FC04C168948B
:1009C00036F8DDCF8C3619F4689437F8D8CF8836EE
:1009D000B1F2982F9F7D95549330E0F08336A1F1CA
:1009E0008337C1F1833509F063C02801F2E04F0E6F
:1009F000511CF801C080D180692D70E036FC02C026
:100A00006FEF7FEFC6010E944D064C01689437F8E6
:100A100082010AC00C5F1F4FFFE3F983882483948F
:100A2000912C6501E89437F833FE2DC0522C8114C7
:100A3000910471F5552009F468CFB70180E290E088
:100A40000E9463065A94F6CFF801808189830E5F75
:100A50001F4FE4CF2801F2E04F0E511CF801C08077
:100A6000D180692D70E036FC02C06FEF7FEFC601C8
:100A70000E9458064C018201D5CFB70180E290E078
:100A80000E9463062A942814190409F0B0F7CECF07
:100A9000F60137FC859137FE81916F01B70190E037
:100AA0000E94630651105A94F1E08F1A9108BFCF4B
:100AB000843619F0893609F077C0F80137FE6BC02B
:100AC00060817181828193810C5F1F4FF32DFF76CE
:100AD0003F2E97FF09C090958095709561957F4F47
:100AE0008F4F9F4F689437F82AE030E0A5010E94AD
:100AF0009306C82ECA188C2C432C36FE0CC0E894E2
:100B000040F8C91440F434FE05C032FC03C0F32D94
:100B1000FE7E4F2E892C44FE95C0FE01EC0DF11D8A
:100B20008081803309F087C0242D297E422E842DB8
:100B30008870582E43FC95C040FE8FC09C2C8214B8
:100B400018F42C0C922C981844FE91C0B70180E345
:100B500090E00E94630642FE09C088E790E041FEF3
:100B600002C088E590E0B7010E946306C91408F44A
:100B70008AC0CA94D12C9FEFC91AD90ACA0CDB1CAF
:100B8000F60182916F01B70190E00E946306AC14F8
:100B9000BD04B1F74FCF60817181072E000C880B27
:100BA000990B0E5F1F4F92CFD32CE894D4F82AE014
:100BB00030E0853739F1232D297FD22E8F3601F190
:100BC00048F48835A9F0F701868197812B96E2E1F8
:100BD0000C940D07803749F08837A9F7D4FE02C07E
:100BE0006894D2F820E130E00DC06894D4F8F6CFD4
:100BF00034FE03C0822F8660D82E20E132E002C08E
:100C000028E030E0F801D7FE0FC060817181828159
:100C100093810C5F1F4FA5010E949306C82ECA182E
:100C20003D2CE89437F867CF6081718190E080E0D7
:100C30000E5F1F4FF0CF42FC02C0839478CF8394A5
:100C4000839475CF842D867809F471CFF6CFB701E0
:100C500080E290E00E94630683948214C0F3512CDA
:100C600073CF522C5818821408F46ECFF8CF842D0D
:100C7000867809F47BCF8BE241FE80E247FC8DE26F
:100C8000B70190E071CFB70180E390E00E94630666
:100C90009A946CCF8FEF9FEF99CFFC010590615034
:100CA00070400110D8F7809590958E0F9F1F089582
:100CB000FC016150704001900110D8F7809590952B
:100CC0008E0F9F1F08950F931F93CF93DF93182FBD
:100CD000092FEB018B8181FD09C01FEF0FEF812FE1
:100CE000902FDF91CF911F910F91089582FF14C033
:100CF0002E813F818C819D81281739073CF4E88142
:100D0000F981CF0101969983888310838E819F8119
:100D100001969F838E83E3CFE885F985812F09951E
:100D2000892BA1F3DACFFA01AA27283051F120311B
:100D300081F1E8946F936E7F6E5F7F4F8F4F9F4F6F
:100D4000AF4FB1E03ED0B4E03CD0670F781F891FB1
:100D50009A1FA11D680F791F8A1F911DA11D6A0F7F
:100D6000711D811D911DA11D20D009F468943F9132
:100D70002AE0269F11243019305D3193DEF6CF0131
:100D80000895462F4770405D4193B3E00FD0C9F7F7
:100D9000F6CF462F4F70405D4A3318F0495D31FD64
:100DA0004052419302D0A9F7EACFB4E0A6959795B7
:100DB000879577956795BA95C9F70097610571058D
:100DC00008959B01AC010A2E0694579547953795D7
:100DD0002795BA95C9F7620F731F841F951FA01D31
:100DE00008952F923F924F925F926F927F928F92CF
:100DF0009F92AF92BF92CF92DF92EF92FF920F93AA
:100E00001F93CF93DF93CDB7DEB7CA1BDB0B0FB6B3
:100E1000F894DEBF0FBECDBF09942A883988488870
:100E20005F846E847D848C849B84AA84B984C88406
:100E3000DF80EE80FD800C811B81AA81B981CE0FFD
:100E4000D11D0FB6F894DEBF0FBECDBFED010895E2
:040E5000F894FFCF44
:100E5400000000001D017D00AA006A01DB00B9004A
:100E6400CD000D0A00253032782000446F6E6520D5
:020E740021005B
:00000001FF
